S01400006C6F636B5F62726434313138612E73333771
S3150800600008120020119F0308B3E008086D1D070851
S31508006010C3130908751D0708791D07087D1D07089C
S31508006020B3E00808B3E00808B3E00808151D0B0834
S31508006030811D0708C8A70C08B91C0B08D7230B082D
S31508006040B3E00808B3E00808B3E00808B3E00808B6
S31508006050B3E00808B3E00808B3E00808B3E00808A6
S31508006060B3E00808B3E00808B3E00808B3E0080896
S31508006070B3E00808B3E00808B3E00808B3E0080886
S31508006080B3E00808B3E00808B3E00808B3E0080876
S31508006090B3E00808B3E00808B3E00808B3E0080866
S315080060A0B3E00808B3E00808B3E00808B3E0080856
S315080060B0B3E00808B3E00808B3E00808B3E0080846
S315080060C0B3E00808B3E00808B3E00808EDA8030839
S315080060D0B3E00808B3E00808B3E0080899A803087D
S315080060E079A80308B3E00808B3E00808B3E008088D
S315080060F0B3E00808C199060861A406083FBF0A0864
S315080061003BBF0A08099C060855BF0A0843BF0A0888
S3150800611031A4060847BF0A08A1A4060809A5060867
S31508006120B3E00808B3E00808B3E00808B3E00808D5
S31508006130B7090908B3E00808B3E00808B3E0080897
S31508006140B3E00808B3E00808B3E00808B3E00808B5
S31508006150B3E00808B3E00808B3E00808B3E00808A5
S31508006160B3E00808B3E00808B3E00808B3E0080895
S31508006170B3E00808B3E00808B3E00808B3E0080885
S31508006180B3E00808B9E30308B3E00808F7220B08E8
S31508006190957D0608B3E0080821BF0A0827BF0A0844
S315080061A0B3E00808B3E00808B3E00808B3E0080855
S309080061B0B3E008083A
S315080061B4F0B5114A114C124E00F00105E3695F0768
S315080061C413D40DB9334213D103EA00078F4207D11A
S315080061D40B4A1A40002A0CBF00206FF00100F0BDDC
S315080061E4013AEBD16FF00200F9E74FF0FF30F6E71A
S315080061F46FF00100F3E700BF809698000000035093
S315080062040200010070B50B4BD96911F480310DD128
S3150800621401244FF48072084E084DF46020462C641D
S315080062241A61FFF7C5FF3464EC6070BD6FF00100B6
S31508006234FBE700BF00000350001003500020035082
S315080062444FF4803238B50E4B0E4C9A66E56941F622
S31508006254713315400122E3630B4B0021DA600223F4
S31508006264606121202361FFF7A3FF10B92120FFF7FE
S315080062749FFF0122054BDA600DB10023E36338BDA5
S3150800628400900050000003500010035000200350F3
S3150800629470B5134C6061E3695B071ED40E4656F865
S315080062A4043B8D18A361AE420BD10423002121209F
S315080062B42361FFF77DFF58B9BDE870402120FFF739
S315080062C477BF08210846FFF773FF10B1042323613B
S315080062D470BD56F8043BA361E5E74FF0FF30F7E7D6
S315080062E4000003502DE9F84315464FF48032184B45
S315080062F489469A6603F51C33DF690646174041F654
S315080063047132DA63012203F58053DFF84C80DA60D0
S3150800631455B9284601220F4BDA601FB10022A3F5AE
S315080063240053DA63BDE8F88306F5005404EA080462
S31508006334A41BAC4228BF2C46494622463046FFF7E2
S31508006344A7FF0028E6D12644A1442D1BE0E700BF99
S31508006354009000500020035000E0FFFF00000000FA
S31508006364000000000000000000000000000000001B
S31508006380013800D0FCE770472DE9F04F2DED028B60
S31508006390884204460D4690461E4697B00AD10346E3
S315080063A001211D202E4A17B0BDEC028BBDE8F04F27
S315080063B081F037BC9FED288B0DF10C092A21484640
S315080063C005AF1BF0FDFA99E8030087E80300DFF83C
S315080063D094A0DFF894B0BDF81620BDF814309A42A0
S315080063E004D117B0BDEC028BBDE8F08F38461BF020
S315080063F0C3FA0AAB814696E8030083E8030009ABB3
S3150800640008938DF824408DF825508DF82680CDF810
S315080064101CA005F02FFF00230E938DF840308DF851
S3150800642051302A23ADF830904FF001090D930CAA8C
S315080064306B4607A98DED128B8DF850906EF069F9B1
S31508006440034620B15A4649461D2081F0EAFB3846E4
S3150800645078F06CFEBFE700BF0000000000000000F7
S31508006460B4EA0B08C0EB0B08F4EA0B0800000000BE
S315080064702DE9F0472DED028B9FED2B8B9CB00DF18E
S3150800648008082A21054604AC404616461F461BF056
S3150800649097FA98E8030084E80300DFF89480DFF8A9
S315080064A09490BDF81220BDF810309A4204D11CB061
S315080064B0BDEC028BBDE8F08720461BF05DFA26A9E5
S315080064C031F8083B0DF1380C8246ADF830300FC96B
S315080064D08CE80F0008AB0793CDE90A670895CDF855
S315080064E0188005F0C7FE00232A228DF858308DF84B
S315080064F069300223ADF848A04FF0010ACDE913230D
S3150800650006A96B4612AA8DED188B8DF868A06EF059
S3150800651000F9034620B14A4651461D2081F081FB09
S31508006520204678F003FEBCE70000000000000000EB
S31508006530E8EB0B084BEB0B082DE9F04F2DED028B22
S31508006540083085B00F469146DDF8508081F04BFA49
S315080065500446002800F09A806E4600259FED4E8B73
S315080065604FF0010B41F2A45A10AB0FCB86E80F008F
S315080065704B4BC4E902552360C4E90455C4E90655E2
S315080065802C336360474B04F1480C0FCB84ED0E8B1C
S31508006590C4E90C5584F8205084F840508CE80F0064
S315080065A0414B84F858B0A4F85AA0E56584ED188BD9
S315080065B0A36604F17C03C4E91F333C4B1022C4F8DC
S315080065C090302946C4E91B55C4E9255584F874500A
S315080065D0C4F88450C4F89C5004F1A000A7F06CF8E5
S315080065E084ED2E8B84F8B0B0A4F8B2A0C4F8B450E9
S315080065F004F1C00081F01BFF4AF6C873C82284ED77
S31508006600368B84ED388BC4E93A2304F58273C4E9E2
S315080066103E55C4E94133A4F8CC5084F8CE50A4F8CA
S31508006620D05084F80051C4F80C513B68A3607B68CD
S31508006630E360BB682361FB6863613B69A3617B69AF
S31508006640E3613B7E84F8203033B104F1240307F17B
S315080066501C0207CA83E8070038466CF088FAA8B90E
S31508006660B9F1000F12D0B8F1000F0FD003CE33786E
S31508006670C4F8309084F84030012384F8F830231D9C
S31508006680A063E163C4F88880C4F89C30204605B04E
S31508006690BDEC028BBDE8F08F000000000000000092
S315080066A0045D0B082C750120809C0C08F45C0B0813
S315080066B02DE9F04F2DED028B00240025CBB099462D
S315080066C0CDE92E450023CDE93045CDE934454FF6D1
S315080066D0FF74DFF898A2064688461746CDE90C33BC
S315080066E08DF8C8303393CDF8D8A04894A2B30546A0
S315080066F000F53474A54206D10B2420464BB0BDECF8
S31508006700028BBDE8F08F28466EF0F8F908B190358F
S31508006710F0E79FED8F8BBDF85C318DF8C880ADF83A
S3150800672020318D4B4FF4C8710E93002309A8CDE98B
S3150800673009330F93CDF870A00B9375F031F8099CC7
S3150800674014BB0B240BA86CF0E6F80AA86CF0E3F867
S3150800675009A86CF0E0F8D0E77AF0C3FC044608B95B
S31508006760AC24CAE706F53475284678F08EFBB4F8EB
S3150800677082308DF8C880ADF8203121460CA894EDFA
S31508006780028B7AF01BFCCCE74FF4C8710AA875F0A7
S3150800679007F8DDF828A0BAF1000FD2D04FF4C87177
S315080067A00BA874F0FDFF0B9A002ACAD04FF4C873E1
S315080067B04146CDE91332304610AA1094CDE9113A74
S315080067C015937AF0EEFC04460028BBD141463046C4
S315080067D012AA7AF0C8FC04460028B3D141463046CE
S315080067E014AA7AF09DFC04460028ABD110A916A875
S315080067F074F0CCFF12A918A874F0C8FF14A91AA837
S3150800680074F0C4FF36AB079330AB05930DF1B80AA5
S3150800681034ABCDE903A30DF1700B0EAB8DED008BF8
S31508006820CDF818B002931AAA18A916A81FF0B6F838
S315080068300446002886D10BA86CF06DF80AA86CF0FF
S315080068406AF809A86CF067F8B9F1000F13D1D6F801
S31508006850640300285ED003689B6898470346D6F809
S315080068606403002B4ED003685A4641465B69984735
S31508006870044688B141E7D9F8003048465B6998472D
S3150800688059467AF05EFF08B9C52436E79DF85831AF
S31508006890CDF8CC908DF822319DF860315146B3FA87
S315080068A083F328465B098DF823317AF0CEFE044639
S315080068B000287FF422AF28460CA97AF0C4FB06F517
S315080068C05D7495F881303FB302211120234A81F087
S315080068D0A8F9D5E900122B69CDE9012100936B6966
S315080068E0022111201E4A81F09CF920460F9921F0B9
S315080068F00FF8034630BB96F88233013386F88233A5
S315080069000024FAE603684146DB6898470028C3D1A5
S315080069101024F2E60324F0E6D5E900121120CDE9A9
S31508006920002102210F4A81F07CF920460F9920F0B8
S31508006930EFFF03460028E3D0012111200A4A81F01F
S3150800694070F9DDE701211120074A81F06AF9D2E7DB
S31508006950000000000000000070310C089C300C0894
S31508006960BC300C08FF300C0834310C08986F0C0842
S315080069702DE9F0478AB00DF10D030193152306465C
S3150800698000934FF48072002308460C4680F01CF9E9
S31508006990E8B996F89230012200932046002380F049
S315080069A09AF8A0B996F8933002220093204600235D
S315080069B080F091F858B90DF10E03019316230322BE
S315080069C000932046002380F0FFF8054610B10AB070
S315080069D0BDE8F0874FF0100906F1C8070DF1180851
S315080069E0102200214046A6F067FE0DF10F03019321
S315080069F015234FF4807200932046002380F0E4F8B4
S31508006A000028E4D196F89320EBB29A4251D917EDB3
S31508006A100C7BC44637F828ACA7F12603A7F1160E57
S31508006A20624618685968083303C273459446F7D115
S31508006A308DED007B04220023204680F027F80028ED
S31508006A40C5D1052200232046CDF800A080F043F8E2
S31508006A500028BCD14046494606228DE8030000239B
S31508006A602046CDE9048980F082F90028AFD1204676
S31508006A709DF90F1080F0DDF8013530370028A6D1D2
S31508006A80032DADD120469DF90E1080F0D2F80028CE
S31508006A909DD1B6F88A30072200932046002380F05D
S31508006AA01AF8002893D120469DF90D1080F0C1F8F8
S31508006AB08DE782469FED027BBAE700BFAFF3008001
S31508006AC00000000000000000054B18680368D9693B
S31508006AD001A3D3E90023084700E0373B015D030023
S31508006AE0E8110220000000002DE9F84F402200219D
S31508006AF02948A6F0E1FD302200212848A6F0DCFD51
S31508006B0000209FED237B264B264E274ADFF888B0C8
S31508006B10DFF8ACA0DFF8AC90DFF8AC80DFF8ACE0CB
S31508006B201E4FA3F1180C2425002145430BEB4014F6
S31508006B3043E9054A0CEB050443E9039843F8181C96
S31508006B4043F804EC21772162182404FB007442F808
S31508006B50144C164C42F8181C42F8104C144CA6EC6F
S31508006B60027B42F80C4C134C43F8241B42F8084CA1
S31508006B70114C42F8044C114C2C442177216242F8FE
S31508006B80241B08B1BDE8F88F0120CCE7AFF30080DD
S31508006B90000000000000000010C20120E0C1012032
S31508006BA0B0C10120C8BA002068C10120792B0408A9
S31508006BB0611509087F150908B915090850C101208A
S31508006BC0A92B040887150908491509088B1509080A
S31508006BD02DE9F043022089B0A8F0FEF800B9FEE7D7
S31508006BE0634E336803B9FEE71020A8F0F5F833685A
S31508006BF0604C9B880DF10B018DF80B300123206842
S31508006C001A46A4F0A6FB9DF80B203168023A002329
S31508006C10096892B22068A4F09CFB3368564993F839
S31508006C2029208DF814200022CDE906121B681D784C
S31508006C3015F0200516D02068A4F02DF9002862D09A
S31508006C402068A4F028F964F099F90B46024644A195
S31508006C50D1E9000164F036FB64F0A4FC079B1844F4
S31508006C60012507902068A4F024F99DF80B30002828
S31508006C704CD0981DC00064F091F93BA3D3E90023DA
S31508006C8064F0F6F9804620688946A4F012F964F0A3
S31508006C9075F90B4602464946404664F013FB64F014
S31508006CA081FC079B184407902020A8F095F848B166
S31508006CB000210122206859F037FB002148F2200004
S31508006CC0A8F076F8336805AF5A6962BB1020A8F0B9
S31508006CD083F800B3079B326803F5FA73117E0793AE
S31508006CE0264B997026490978D970917900972A46D2
S31508006CF02068A3F0DFFE78B34FF48050A8F060F95F
S31508006D008BF08AFC28E00798C030A9E70798063375
S31508006D1000EB4310C7E731683B462A468979206865
S31508006D20A3F0B2FEE7E7196916480A440021ADF850
S31508006D301010962181809979CDE90007A2F59B72FA
S31508006D40039220682A4603ABA3F0BFFE0028D3D1DE
S31508006D5001214020A8F02CF809B0BDE8F08300BF57
S31508006D600000000060E366410000000080842E41B8
S31508006D7050C301209CC2012020A107006C120220EA
S31508006D8059190220601202207FB50120A8F024F8C4
S31508006D900546002840F0C980674B684C1A889B78DE
S31508006DA0674E8DF80A30674BADF80820236041F628
S31508006DB00B233060B3803CF06FFF4FF0FF33039333
S31508006DC0614B1B6ADB0700D4FEE7604B2A461B882B
S31508006DD0214623825E4B03A81B68E582A3615D4BAF
S31508006DE025621B8863825C4B1B68E36159F05AF97C
S31508006DF000B1FEE75AF0D4FD00B1FEE75749039803
S31508006E005AF006F900B1FEE702210398A4F024F827
S31508006E1000B1FEE7524903985AF0A2FB00B1FEE71B
S31508006E2001210398A4F07BFC00B1FEE70121039839
S31508006E30A4F08BFC054600B1FEE701463C22494812
S31508006E40A6F03AFC2B4680220398009504F124010B
S31508006E50A4F095FA00B1FEE701210398A3F000FE1D
S31508006E60414D0398286000B9FEE731A3D3E9002312
S31508006E70CDE900234FF0FF324FF0FF33A4F0ACF812
S31508006E80014600B1FEE72E483CF008FA0121084603
S31508006E90A7F08EFF286802A959F0A4FA044600B1A3
S31508006EA0FEE7324B324A98801860324B1A60FF224E
S31508006EB09880314B83F82820304A98801A60304AE7
S31508006EC06FF06300DA6042F0B3FF33790B2B11D809
S31508006ED073790A2B0ED92B4B1E6037F0EDF9204635
S31508006EE03CF0CCFE082228681146A4F08FF8044628
S31508006EF008B1FEE7FEE73CF0B9FE234B1021234814
S31508006F001C708BF0ABFC00B9FEE721491F488BF0DB
S31508006F10B7FC00B9FEE710218C201E4A3BF048F862
S31508006F2000B1FEE71C4891F0C9F804B070BD00BF77
S31508006F300AE020FFE203000018C80C08ACC20120D2
S31508006F40A4C2012089F00A080080E00F2EFD0C0873
S31508006F5034FD0C082CFD0C0830FD0C080700110048
S31508006F60ECC70C085CC201209CC2012048BB00206B
S31508006F70860A022018BB0020E8BA0020060A02206A
S31508006F80D8BA0020A0C20120080B022064C3012041
S31508006F9037230B0854C30120B4690B08000000000E
S31508006FA007B588B10BA3D3E900230949C1E9022330
S31508006FB0CDE900234FF0FF324FF0FF330869A4F004
S31508006FC00BF803B05DF804FB00220023EDE700BFD1
S31508006FD0185001200DD50155200000000348044B28
S31508006FE0834202D0034B03B118477047601A022048
S31508006FF0601A022000000000064B0749C91A8910CA
S3150800700048BF0131491003D0044B0BB1014818475A
S31508007010704700BF601A0220601A022000000000B4
S3150800702010B5064C237843B9FFF7D8FF044B13B1C4
S315080070300448AFF300800123237010BDAAE40120A1
S315080070400000000000490D0808B5054B1BB10549AD
S315080070500548AFF30080BDE80840FFF7CDBF00BF85
S3150800706000000000B855012000490D08A3F5803A34
S31508007070704700BF174B002B08BF134B9D46FFF701
S31508007080F5FF00218B460F461348144A121AA6F03C
S3150800709013FB0E4B002B00D098470D4B002B00D04E
S315080070A098470020002104000D000D48002802D052
S315080070B00C48AFF3008066F0F9FE200029008AF03C
S315080070C09EF965F0F3FF00BF00000800000000000D
S315080070D0000000000812002008120020000E0220FE
S315080070E00000000000000000064B1B681A7A022AFE
S315080070F004D812B11B68044A13607047032AF9D0F2
S31508007100704700BFE00F0220D055012008B504489B
S3150800711087F0DAF8BDE80840024887F0D5B800BF1E
S31508007120B0310B0898310B0808B5044887F07EF98A
S31508007130BDE80840024887F079B900BFE0310B087E
S31508007140C8310B0870B58B6806460D4614468CB0D8
S31508007150ABB1022B35D00023812267F04FF8D5E971
S31508007160012391B2120C01929AB202910092012166
S315080071701D201A4A1B0C80F054FD0CB070BD194630
S315080071801C2205A8A6F098FA214605A867F0B0FCC7
S31508007190044638B92946304605AA0BF0C9F900282D
S315080071A0EBD10446294630460023852267F026F8A7
S315080071B0234602211D200A4A0CB0BDE8704080F023
S315080071C030BD114605A867F0CCFC04460028E9D175
S315080071D02946304605AA0BF03BFAE0E7F8310B08DA
S315080071E02C320B0870B58B6806460C4688B0F3B986
S315080071F0114604A8ADF810308DF8143067F0ABFFCF
S31508007200054628B92146304604AA72F008FA00BB9A
S31508007210214630460023852266F0F0FF2B460221E0
S315080072201D200D4A08B0BDE8704080F0FABC002366
S31508007230812266F0E3FFD4E9012391B2120C019290
S315080072409AB20291009201211D20044A1B0C80F07B
S31508007250E8FC08B070BD00BF2C320B08F8310B08EB
S3150800726070B58B6806460D4614468CB0272B00F27F
S315080072709181DFE813F0280049008F0159008F013A
S315080072808F018F018F018F018F018F016B008000A5
S315080072909200A400B500C800DB00EF0000018F01D2
S315080072A08F018F018F018F018F01110124018F0139
S315080072B035018F018F018F018F0146018F01590119
S315080072C08F016C017E010023214604A88DF8103039
S315080072D068F090FB044640B92946304604AA0DF0EA
S315080072E0E7FB002840F0688104462946304600231B
S315080072F0852266F083FF234602211D20AF4A0CB083
S31508007300BDE8704080F08DBC0023214604A88DF8A6
S31508007310103068F091FB04460028E6D1294630462D
S3150800732004AA0DF0E1FBDCE70023214604A8ADF82A
S3150800733010308DF8143068F083FB04460028D4D149
S315080073402946304604AA0DF001FCCAE70023214667
S3150800735004A88DF81030ADF8123005938DF8183062
S3150800736069F053FF04460028BFD12946304604AACF
S315080073700DF060FDB5E70023214604A88DF810300E
S31508007380ADF8123067F0A8FC04460028ADD12946AE
S31508007390304604AA0EF052FCA3E70023214604A8AF
S315080073A08DF81030ADF8123067F098FC04460028C6
S315080073B09BD12946304604AA0DF00AFE91E7002320
S315080073C0214604A8CDE90433069367F089FC0446F0
S315080073D000288AD12946304604AA0DF04DFF80E7D9
S315080073E00023214604A88DF81030ADF8123067F056
S315080073F0ABFC044600287FF478AF2946304604AA39
S315080074000DF074FE6DE70023214604A88DF81030B0
S31508007410ADF8123067F09AFC044600287FF465AF91
S315080074202946304604AA0EF051F95AE710220021DF
S315080074300DEB0200A6F040F9214604A868F0B8FF53
S31508007440044600287FF451AF2946304604AA0EF0B8
S31508007450E1F946E70023214604A88DF8103067F0C5
S3150800746077FC044600287FF440AF2946304604AA34
S315080074700EF042FA35E70023214604A88DF81030AD
S3150800748067F068FC044600287FF42FAF294630468B
S3150800749004AA0EF0A7FA24E72022002104A8A6F0E1
S315080074A00BF9214604A869F0CCF8044600287FF4B5
S315080074B01CAF2946304604AA0CF092FB11E70023BC
S315080074C0214604A8ADF8103067F046FC04460028AB
S315080074D07FF40BAF2946304604AA0CF0F1FD00E70D
S315080074E00023214604A8ADF8103067F037FC04469F
S315080074F000287FF4FAAE2946304604AA0EF026F88C
S31508007500EFE61822002104A8A6F0D6F8214604A81A
S3150800751069F02DF8044600287FF4E7AE2946304680
S3150800752004AA0FF069F8DCE60023214604A88DF8C2
S315080075301030ADF8123067F013FC044600287FF4CB
S31508007540D4AE2946304604AA0CF0E2FFC9E6002369
S31508007550214604A80493ADF8143067F023FC0446CA
S3150800756000287FF4C2AE2946304604AA0FF05AFB1B
S31508007570B7E60023214604A88DF8103068F05EFAB5
S31508007580044600287FF4B1AE2946304604AA0DF019
S3150800759007FBA6E60023812266F030FED5E9012323
S315080075A091B2120C01929AB20291009201211D2009
S315080075B0034A1B0C80F035FB0CB070BD2C320B084F
S315080075C0F8310B0870B58B6806460C4686B0D3B9F9
S315080075D0114605A867F089FA054628B921463046B6
S315080075E005AA72F08EFD00BB21463046002385228F
S315080075F066F004FE2B4602211D200D4A06B0BDE8A2
S31508007600704080F00EBB0023812266F0F7FDD4E9B6
S31508007610012391B2120C01929AB2029100920121B1
S315080076201D20044A1B0C80F0FCFA06B070BD00BF92
S315080076302C320B08F8310B0870B58B6806460D46D8
S3150800764088B0ABB1012B36D00023812266F0D6FD77
S31508007650D5E9012391B2120C01929AB202910092D5
S3150800766001211D201A4A1B0C80F0DBFA08B070BDF8
S3150800767000200021CDE90601114604A8CDE904330E
S3150800768067F02FF9044638B92946304604AA72F03D
S315080076904FFF0028EAD104462946304600238522B2
S315080076A066F0ACFD234602211D200A4A08B0BDE853
S315080076B0704080F0B6BA114604A867F03BF9044654
S315080076C00028E9D12946304604AA0FF09BFFE0E7D7
S315080076D0F8310B082C320B0870B58B6806460D4638
S315080076E014469CB0042B53D8DFE803F00325523523
S315080076F045006022002104A8A5F0DEFF214604A863
S3150800770069F0C3FA044638B92946304604AA10F087
S31508007710ADFA00284ED10446294630460023852274
S3150800772066F06CFD234602211D20234A1CB0BDE8E5
S31508007730704080F076BA0023214604A8ADF81030D0
S3150800774067F091FA04460028E6D12946304604AA8D
S3150800775010F072FBDDE70023214604A8ADF81030CF
S3150800776067F083FA04460028D6D12946304604AA8B
S3150800777010F0BEFBCDE7214604A867F078FA044668
S315080077800028C9D12946304604AA10F0DFFBC0E715
S315080077900023812266F032FDD5E9012391B2120C4D
S315080077A001929AB20291009201211D20034A1B0CF4
S315080077B080F037FA1CB070BD2C320B08F8310B0874
S315080077C070B58B6806460D4686B0ABB1402B32D0F5
S315080077D00023812266F012FDD5E9012391B2120C2D
S315080077E001929AB20291009201211D201A4A1B0C9D
S315080077F080F017FA06B070BD114605A8ADF814302A
S3150800780066F0C7FD044638B92946304605AA73F01E
S31508007810E8F80028EED1044629463046002385229A
S3150800782066F0ECFC234602211D200C4A06B0BDE892
S31508007830704080F0F6B90023114605A8ADF814305B
S3150800784066F0C9FD04460028E6D12946304605AA51
S3150800785010F048FEDDE700BFF8310B082C320B08A4
S3150800786070B58B6806460C468CB033BB00200021E9
S31508007870CDE90401114604A8ADF818308DF81A3080
S315080078808DF81C30ADF8283067F0C5FF054628B9D5
S315080078902146304604AA14F043FE00BB2146304672
S315080078A00023852266F0AAFC2B4602211D200D4ADC
S315080078B00CB0BDE8704080F0B4B90023812266F0B0
S315080078C09DFCD4E9012391B2120C01929AB202915D
S315080078D0009201211D20044A1B0C80F0A2F90CB06D
S315080078E070BD00BF2C320B08F8310B082DE9704328
S315080078F00D46AB680646114690B00B2B00F2A280E7
S31508007900DFE803F006A026A035A04661A0728190A4
S31508007910002304A8CDE9043367F026F9044640B9E4
S315080079202946304604AA12F0C7FA002840F09D807E
S315080079300446294630460023852266F05FFC234626
S3150800794002211D204A4A10B0BDE8704380F069B98B
S31508007950002304A88DF8103067F008F904460028BB
S31508007960E7D12946304604AA12F07EF9DDE700235E
S3150800797004A8CDE904338DF8183067F0C6FE04462E
S315080079800028D6D12946304604AA12F07FFBCCE758
S3150800799000234FF000084FF0000904A8CDE904338E
S315080079A0CDE90933CDE90C898DF81830ADF83830B2
S315080079B067F0E3FF04460028BBD12946304604AAEF
S315080079C011F068FFB1E7002304A8CDE904338DF868
S315080079D0183067F0D0FF04460028AAD12946304659
S315080079E004AA11F03DFEA0E7002304A8CDE904335C
S315080079F067F0E6F8044600289BD12946304604AAD3
S31508007A0011F0AAFD91E7002304A88DF8103067F05D
S31508007A10F9F8044600288CD12946304604AA11F004
S31508007A2023FD82E7002304A8CDE9043367F0ECF8C8
S31508007A30044600287FF47DAF2946304604AA11F093
S31508007A40C1FE72E700238122294666F0D7FBD5E9F5
S31508007A50012391B2120C01929AB20291009201216D
S31508007A601D20044A1B0C80F0DCF810B0BDE87083BA
S31508007A702C320B08F8310B0870B58B6806460C4695
S31508007A8086B0D3B9114605A866F09BFF054628B906
S31508007A902146304605AA75F0A4FA00BB21463046B1
S31508007AA00023852266F0AAFB2B4602211D200D4ADB
S31508007AB006B0BDE8704080F0B4B80023812266F0B5
S31508007AC09DFBD4E9012391B2120C01929AB202915C
S31508007AD0009201211D20044A1B0C80F0A2F806B072
S31508007AE070BD00BF2C320B08F8310B0870B58B68D7
S31508007AF006460C4686B0D3B9114605A866F064FF5B
S31508007B00054628B92146304605AA15F01FFB00BBD5
S31508007B10214630460023852266F070FB2B4602215B
S31508007B201D200D4A06B0BDE8704080F07AB80023E3
S31508007B30812266F063FBD4E9012391B2120C01920B
S31508007B409AB20291009201211D20044A1B0C80F072
S31508007B5068F806B070BD00BF2C320B08F8310B0868
S31508007B6070B58B6806460C4686B0D3B9114605A88B
S31508007B7066F04FFF054628B92146304605AA75F036
S31508007B80A9FD00BB214630460023852266F036FB58
S31508007B902B4602211D200D4A06B0BDE8704080F034
S31508007BA040B80023812266F029FBD4E9012391B26B
S31508007BB0120C01929AB20291009201211D20044AE8
S31508007BC01B0C80F02EF806B070BD00BF2C320B08D7
S31508007BD0F8310B0837B5436804463F2B154647D896
S31508007BE0292B11D8032B77D09AB2009201211D2098
S31508007BF0514A1B0C80F015F80023C322214628465B
S31508007C0066F0FCFA03B030BDA3F12A02152AEBD8B8
S31508007C1001A050F822F000BFE97C0008E97B0008C3
S31508007C20E97B0008E97B0008E97B0008E97B000896
S31508007C30E97B0008E97B0008997C0008B97C000804
S31508007C40097D0008197D0008297D0008A97C00081F
S31508007C50E97B0008E97B0008E97B0008E97B000866
S31508007C60897C0008E97B0008F97C0008C97C0008C3
S31508007C7040F201129342B7D10A460146284603B09C
S31508007C80BDE83040FFF7ECBA0A462846214603B05D
S31508007C90BDE83040FFF756BA0A462846214603B0E3
S31508007CA0BDE83040FFF79EBA0A462846214603B08B
S31508007CB0BDE83040FFF786BC0A462846214603B091
S31508007CC0BDE83040FFF7B8BC0A462846214603B04F
S31508007CD0BDE83040FFF700BD0A460146284603B016
S31508007CE0BDE83040FFF76CBD0A462846214603B07A
S31508007CF0BDE83040FFF7B4BD0A462846214603B022
S31508007D00BDE83040FFF7F2BD0A462846214603B0D3
S31508007D10BDE83040FFF7B0BE0A462846214603B004
S31508007D20BDE83040FFF7E2BE0A462846214603B0C2
S31508007D30BDE83040FFF714BF55320B0840F25343F5
S31508007D40984230D009D8992815D040F201139842A4
S31508007D5014D03C280AD00020704740F20E539842AF
S31508007D6023D0144B9842F6D1122918E002298CBF69
S31508007D70002001207047481E0628F8E72929EAD876
S31508007D80192903D8012909D8012070474FF2091388
S31508007D90A1F11A00C34003F001007047032914BF7C
S31508007DA00020012070470129E1E70029ECD0881E50
S31508007DB00128DCE705FCF1FF08B5154B4FF4E47222
S31508007DC000211846A5F078FC0922034602614261A3
S31508007DD01048114A98614FF48061DA6100221962ED
S31508007DE09A625A62DA62C3F8F0000C48C3F8F400E3
S31508007DF0C3F8F8100A49C3F80021C3F8FC20C3F8F1
S31508007E00042111F8010D98540132102AF9D108BD40
S31508007E10D455012071320B08ABE80120ABE40120F0
S31508007E208A320B082DE9F84FDFF88880824698F8E1
S31508007E3000308946532B164601D0FFF7BDFF182799
S31508007E4007FB0A87D7F80051D7F8FCB05D452FD94C
S31508007E50D7F8F840D7F8F410641BB44228BF344664
S31508007E60484629442246A5F0D2FCD7F8F8302544DE
S31508007E70AB4208BF0025A144361BABEB050B5E459C
S31508007E8028BF5E465EB1182303FB0A83D3F8F410B5
S31508007E90324629444846A5F0BAFC3444354424B150
S31508007EA0182303FB0A88C8F800512046BDE8F88F56
S31508007EB00024E2E7D4550120F8B5182700FB07751A
S31508007EC0124B0E461D4407FB0033DB6A1446012B92
S31508007ED00AD0022B14D023B9284669F0D8FD84426B
S31508007EE008D900242046F8BD284669F0D0FD84420A
S31508007EF028BF044622463146284669F0D1FDF1E7F7
S31508007F002846BDE8F84069F0E6BD00BFD455012013
S31508007F10F8B50B4B04461B780D46532B164601D075
S31508007F20FFF74AFFEFF311874FF0200181F311881D
S31508007F30324629462046FFF7BFFF87F31188F8BD6A
S31508007F40D45501202DE9F041164C1E4623780546E6
S31508007F50532B8846174601D0FFF72EFF082D1DD84C
S31508007F60EFF3118C4FF0200181F3118865B11820C9
S31508007F7005FB000344F80380E2180023576000FB62
S31508007F800542166293625362182303FB0544069B57
S31508007F90E3628CF311880020BDE8F0814FF0FF30D2
S31508007FA0FAE700BFD45501202DE9F843174E1F46BE
S31508007FB033780546532B8946904601D0FFF7FCFED9
S31508007FC0082D1FD8EFF311824FF0200181F3118895
S31508007FD06DB11824002304FB0564C4F8F090C4F8B6
S31508007FE0F480C4F8F870C4F80031C4F8FC301823DB
S31508007FF003FB0566089BC6F8043182F31188002046
S31508008000BDE8F8834FF0FF30FAE700BFD4550120EA
S3150800801070B50D4C054623780E46532B01D0FFF755
S31508008020CBFE082D0DD8EFF311834FF0200181F315
S315080080301188182202FB0544E66283F311880020A2
S3150800804070BD4FF0FF30FBE7D4550120024B1B787B
S315080080500BB1002303737047ADEC0120014875F09E
S3150800806085BC00BF5071012048F2040210B5038890
S3150800807093420DD006D803F5FF437F339BB2012BFD
S315080080800AD910BD48F212029342FAD10F4A0CE0FF
S31508008090027A0F4B1A70F4E790F90830012B03D0D7
S315080080A090F90930012BECD10A4A022121207FF0F0
S315080080B0B8FD80F062FA036840F6B8315C69064A92
S315080080C0A446BDE810400023604700BFB3320B0842
S315080080D0ADEC01208B320B08651B070808B580F04C
S315080080E04AFD24F025FD24F055FD094829F012F82B
S315080080F000224FF46171074876F08EFB30B1BDE877
S31508008100084001212120044A7FF08BBD08BD00BF2D
S3150800811080A10020B8760020EF320B0810B50A209F
S315080081200C46104A1021AAF072FC0F4B186040B991
S31508008130212001210D4A7FF074FD40F2017069F09B
S3150800814022FE20460A4A0849AAF087F940B92120A2
S315080081500121084A7FF065FD40F2027069F013FEBE
S31508008160002010BD64360B08805801201D330B080B
S3150800817040360B0840330B08F7B5304BD87D38B17D
S31508008180FA2211462E4869F015FD012003B0F0BD0C
S315080081902C4B1B78FF2BF9D00B2BF6D801A252F8E3
S315080081A023F000BFD5810008D9810008DF810008C7
S315080081B08B8100088B8100088B8100088B81000861
S315080081C08B8100088B8100088B8100088B81000851
S315080081D0E98100083222D4E74FF47A72D1E74FF4E6
S315080081E02F724FF49671CDE7174E6846337840F2F2
S315080081F0B634002B154B08BF4FF42F75196818BFF6
S3150800820032250B6808BF4FF496741B699847DDE959
S3150800821000720F49D1E9003013F57A7340F1000076
S315080082209F4272EB0000B0D33378C1E9007283F045
S315080082300103224629463370A4E700BFB057012040
S315080082401012002042190220ABEC0120E81102208E
S315080082500812002010B5064B064C1870204681F00F
S3150800826078FC204681F0CDFCBDE81040FFF784BFBE
S31508008270ADEC012080A1002008B5084B1B780BB98E
S31508008280FFF77AFF064800F0F1FA064B186818B1AE
S31508008290BDE8084000F0EABA08BD00BFACEC012012
S315080082A010120020AC57012008B5094B1868AAF02F
S315080082B010FA01300AD121200121064A7FF0B1FCCB
S315080082C0BDE8084040F2067069F05DBD08BD00BF14
S315080082D0885801205A330B08014608B54FF47A72BC
S315080082E000238002890D63F0CDF9094B0146186811
S315080082F0AAF0D3F950B121200121064A7FF091FC5A
S31508008300BDE8084040F2057069F03DBD08BD00BFF4
S315080083108858012072330B0808B5094B0A211868DA
S31508008320AAF0BBF950B121200121064A7FF079FC59
S31508008330BDE8084040F2057069F025BD08BD00BFDC
S31508008340845801208B330B0810B5022140F6B83348
S315080083500C4A21207FF065FC40F6B830FFF7BCFFD9
S315080083600122094B094C1A70FFF7D6FF2046002157
S3150800837000F0A2FA2046BDE810404FF4FA7169F001
S315080083801DBC00BFA3330B08ACEC01201012002063
S3150800839008B502211D20034A7FF043FCBDE80840CA
S315080083A0FFF7BABFE2330B0870B52A4D037D0446C2
S315080083B02B70837D23B103212120274A7FF031FCCE
S315080083C0FFF7AAFF2B78FE2B22D0FF2B30D00B2BE2
S315080083D037D80B2B35D8DFE803F0061206343434C9
S315080083E034343434341280F0C8F8036841F28831E2
S315080083F05D692346194AAC46BDE87040604780F07F
S31508008400BCF8036842F210715D69144A2346F2E724
S3150800841080F0B3F8036822465B6A1049984780F0F3
S31508008420ACF803684FF47A715D690C4A2346E2E7B3
S3150800843080F0A3F803682246BDE870405B6A0749E6
S315080084401847FF232B700221BDE870401D20044AFF
S315080084507FF0E7BB42190220F2330B08E5840008D7
S3150800846025340B0808B500210A4800F025FA0A4BFE
S315080084701868AAF02EF901300AD121200121074AED
S315080084807FF0CFFBBDE8084040F2067069F07BBC80
S3150800849008BD00BF10120020845801208B330B083A
S315080084A008B5FFF701FFFFF7DDFF064B1A7842B163
S315080084B000221A700221BDE808402120024A7FF0F6
S315080084C0B0BB08BDACEC01203A340B0808B5022154
S315080084D01D20034A7FF0A5FBBDE80840FFF7C2BF91
S315080084E05B340B0808B5064A02211D207FF099FB6C
S315080084F0FF22044B1A70BDE80840FFF7B3BF00BF60
S315080085006A340B084219022008B5094B0146186857
S3150800851058B100231822AAF0BAFA40B1054A012137
S31508008520BDE8084021207FF07CBB034AF7E708BD79
S315080085308058012084340B08B1340B081FB5022378
S31508008540ADF80030044B019068460393FFF7DCFF53
S3150800855005B05DF804FB00BF89850008CB680846AE
S3150800856003B1184702212120014A7FF05ABB00BFF8
S31508008570D2340B0800220249024825F0F5B800BF9C
S31508008580118800087884002008B50388022B0CD1CE
S31508008590064B1B781BB9BDE80840FFF7D5BEFFF7A9
S315080085A061FFBDE80840FFF7E5BF08BDACEC012058
S315080085B000220249024825F0D7B800BFDD8000082E
S315080085C07884002010B5A4B003AB0193812301ACD5
S315080085D002934DF09FFC21464EF0AEF928B994E877
S315080085E0030017F05BFD24B010BD01212120024ACB
S315080085F07FF017FBF7E700BF02350B0838B503799C
S31508008600012B05D1BDE8384040F6B830FFF764BE07
S31508008610174B1C781CB1BDE83840FFF741BFFFF780
S3150800862043FE144B1D78BDB9134880F043FB2A4618
S315080086304FF46171114876F0EFF804460E4880F061
S315080086403EFB24B1012121200D4A7FF0EAFABDE85C
S3150800865038400020FFF7B6BF02212120094A7FF0E3
S31508008660E0FA22460849044825F07EF8EFE700BFFD
S31508008670ACEC0120ADEC012078840020B87600200F
S31508008680EF320B081A350B085D80000800230246F6
S31508008690194610B504462548A7F030F8244B18604B
S315080086A040B921200121234A7FF0BBFA40F2047029
S315080086B069F069FB0023224601211F48A7F01EF82E
S315080086C01E4B186040B9212001211D4A7FF0A9FAE6
S315080086D040F2047069F057FB02212120194B1A4A0F
S315080086E07FF09FFA194A0221012321207FF099FA87
S315080086F023F0F2FA03685B6F98470120FFF762FFE1
S3150800870000F0A0F80021124869F05CFA002211492D
S31508008710114880F095FA114881F065FA104B114915
S315080087201870114878F07EFD10BD00BF3D85000821
S315080087308858012058350B08931B070884580120D0
S3150800874072350B08896A0B088C350B08B0350B088F
S3150800875010120020698000087884002080A100207B
S31508008760ADEC0120A05701205070002038B5054611
S31508008770FFF78CFF044638B1084824F061FD20460F
S3150800878069F001FB204638BD2B6828469B68984748
S3150800879004460028F6D00248EFE700BFCD350B089F
S315080087A0DF350B087FB5114B002401930223104EC9
S315080087B0104D00930121104B3046CDE902440F4A73
S315080087C00FF0CAFE2A4630460D49A3F01CFC2A467D
S315080087D00C480D4B0D4903603033C0E90244436031
S315080087E004B0BDE87040A3F00EBC00BFA983000822
S315080087F0B0570120DC0F0220CD84000891830008C1
S315080088008D8501089C570120F8350B085F1B070862
S3150800881010B50121094828F0D9FF20B14DF07AFB9F
S3150800882001219CF05FFA064824F0ECFE23F054FA86
S31508008830BDE8104003681B6F184700BF88810120F8
S3150800884078840020014881F0A5BB00BF88810120FB
S3150800885010B50446017C044828F0F0FF637C83F0D9
S315080088600103637410BD00BF8881012073B5836856
S315080088700446E3B1C368D3B10E4B684619680B6862
S315080088801B699847D4E90223DDE90065617C002964
S3150800889018BF1346D4E900125B1842F10002B3422E
S315080088A0AA4104D22046FFF7D3FFC4E9006502B007
S315080088B070BD00BFE811022038B500230022C0E9C8
S315080088C00233002304460D46C0E90023027C024811
S315080088D028F0A2FF657438BD88810120014881F01F
S315080088E083BA00BF80A10020014881F07FBA00BF8B
S315080088F080A10020074A011D0260826808B58A42E5
S3150800890001D0A4F048FC41680029FAD04A604368BF
S31508008910136008BDF4370B08044A08B5836802607B
S31508008920243242600BB1A4F036FC08BDB0370B0800
S31508008930A0F10400F0E700BF10B50446054B03603C
S315080089404433436016F030F92046FFF7E5FF20462A
S3150800895010BD00BFA0FA0B08A0F10400ECE700BFA9
S3150800896010B50446074B03F14802036068334260BA
S31508008970C0F84C3316F018F92046FFF7DDFF2046FD
S3150800898010BD00BF40FB0B08A0F10400E8E7A0F506
S315080089905370E5E71F2008B502210A4A7FF041F91E
S315080089A0094828F0B1FB60B90421074827F0BCFF45
S315080089B038B91F200221054A7FF033F9024881F0B1
S315080089C011FA08BD7C360B0880A100209A360B08E0
S315080089D00B480C4B10B5036000230B4C0B49224681
S315080089E0C0E90133C360037443610383A3F00BFB3F
S315080089F02246BDE8104006490648A3F004BB00BF5E
S31508008A00A858012080720C08DC0F02206DFF0208AE
S31508008A10E11B0708381002207FB5044602211F20F3
S31508008A20874A7FF0FEF8234602211F20854A7FF0F9
S31508008A30F8F8854D02211F20814A7FF0F2F80221BD
S31508008A401F20824A7FF0EDF82B784BB9284624F090
S31508008A5063FF00280CBF012300232B7040F0E7803A
S31508008A6021467B4827F020F84DF054FA04469CF03E
S31508008A7021F9002840F0DB80201D23F0AFF804F12F
S31508008A80080023F035F820469CF029F9714A724B04
S31508008A900221002818BF13461F20704A7FF0C1F82C
S31508008AA0FFF778FF002840F0C2806D4880F002F991
S31508008AB06C4CD4E8AF3FDB070BD4204689F036F977
S31508008AC038B1694A69496A48A3F09DFA204689F08F
S31508008AD032F9684CD4E8AF3F13F0010F664D1FD149
S31508008AE0204689F023F9D8B16149284616F0C0F81E
S31508008AF0624B284603F148022B6068336A60C5F862
S31508008B004C33002200235E49C5E9D423C5E9D623A0
S31508008B10C5E9D823544AA3F076FA204689F00BF91A
S31508008B20584C594EE563D6E8AF3F13F0010F574D41
S31508008B3010D1304689F0FAF860B12B1DC5E901332A
S31508008B40534B2846484A53492B60A3F05CFA3046F3
S31508008B5089F0F1F82563504D284627F011FAE368A5
S31508008B6065631BB94D4B4E4AE3605A60A36BF3B974
S31508008B704C4DE6686B68002B41D105F1140069F08D
S31508008B807DF805F11C0069F079F8EB6803B92B72DA
S31508008B9095F82430444823F0050385F8243069F015
S31508008BA06DF800236E602B7285F82430A563E36B9D
S31508008BB00BB93E4BE3633E4D3E4B2846E1682362C4
S31508008BC079F0A0FE236A28462B6178F0DCFFB0B95D
S31508008BD0E268E5619AB1384B384D5A60236101F075
S31508008BE0ABFE374B02216062364A2120A3627FF032
S31508008BF018F82846E16807F017FA00B965610023F6
S31508008C000393314B31480193314B029380F09FFF18
S31508008C1001ABE3622F4B03901A492F48236018F0E3
S31508008C2039F804460E4880F04AF814B1204604B0D4
S31508008C3070BD2A4824F004FB094824F04FFEF6E7E5
S31508008C40C4360B08F7360B087084002003370B0868
S31508008C500C7F0120B3360B08BB360B0813370B08FD
S31508008C6078840020A0580120DC0F0220E31B0708A7
S31508008C70F40F02209C5801202812002040FB0B0804
S31508008C8061890008F80F02208C58012090580120AD
S31508008C9090390B08F5880008A8580120E81002202A
S31508008CA0AB0802200474012010740120004700203C
S31508008CB098710120C810022090710120547101207A
S31508008CC0CC10022025370B08DD88000880A100207B
S31508008CD0E98800089C570120984A002055370B0858
S31508008CE010B51748FFF798FE08B169F04CF8154B10
S31508008CF01548D3F884147FF021FC134822F05EFF50
S31508008D0012487FF0D7FF4DF005F900B10C301CF082
S31508008D1055FC0E487FF0D3FF1F2002210C4A7EF037
S31508008D2080FF0C484CF042FA08B169F02CF80A4C5E
S31508008D302068A9F0EEFB08B1A4F02DFA206010BD5A
S31508008D407A370B08987A0020381002207884002099
S31508008D5082370B08E4D20120A458012010B50A482E
S31508008D6081F006F90021094A0948A9F076FB094C61
S31508008D7002212060084A1F207EF053FF23680BB9A2
S31508008D80A4F009FA10BD00BF8881012004380B0839
S31508008D90E18C0008A458012094370B0810B5044646
S31508008DA001210C20064A7EF03CFF0023E068A36000
S31508008DB020B1BDE8104003689B68184710BD00BF86
S31508008DC028380B08A0F10400E8E700BF10B50A4CE4
S31508008DD0D4E8AF3FDB070DD4204688F0A7FF48B19B
S31508008DE00648074B074A08490360A3F00CF92046D2
S31508008DF088F0A1FF014810BDC4580120C8580120B9
S31508008E00A0500C08DC0F0220B31C070810B5044656
S31508008E100B4B03606433436000F50E702FF048FC7B
S31508008E20636A23B1002204F11C0062629847236931
S31508008E3023B1002204F1080022619847204610BD9C
S31508008E407CE60B08A0F10400E0E700BF10B5044675
S31508008E50034B40F8343B68F042FF204610BD00BF84
S31508008E6030E00B0837B5C0680D46144638B90121FD
S31508008E700C200E4A7EF0D5FE002003B030BD1A68DD
S31508008E802146019200221A6001AA11F00BFD01A8E1
S31508008E9068F025FFA38823B9E38813B92378402B04
S31508008EA0EAD02B8943F040032B81E5E73B380B08D2
S31508008EB0A0F10400D6E700BFF0B505460C4615201C
S31508008EC003211A4A85B07EF0ACFEAF6817B90320B5
S31508008ED005B0F0BD0023ADF808302389267B23B9F9
S31508008EE06389022B1ED1142E02D00123ADF8083057
S31508008EF060682EF0F3FD63683246039302AB009375
S31508008F00A168384603AB21F019FD044603A868F0AA
S31508008F10E6FE2CB1A86818B17EF097FF0023AB6077
S31508008F202046D5E7002BE0D1402EDDE76E380B084A
S31508008F3073B5164811F0A6FE1549164AD1F88434B9
S31508008F40154E164D5360A1F5405133460F4800950E
S31508008F5011F090FF124B336127F000FB04460246DE
S31508008F600A49304612F09AFF2946204627F020F98A
S31508008F7040B10C4824F064F96D210B4B0B4A0C48A0
S31508008F8064F06EF86C6002B070BD00BF7016002009
S31508008F90987A0020601002204010022090150020C8
S31508008FA0805101007F380B089B380B08B0380B0836
S31508008FB0CE380B0870B500243248334B334E036065
S31508008FC06433436000F10803C0E90233304BC0E95B
S31508008FD00440836100F11C03C0E907332D4BC0E947
S31508008FE00940C0E90B342C4BC0E90D4443642033D7
S31508008FF083640523C0E92044C0E92244C0E96444E7
S3150800900080F83C40046480F8744080F89841C0F8C1
S315080090109C4180F8A04180F8B84180F8D04180F89A
S31508009020E841C0F81C321D4B32461D491D4DC0F89B
S315080090303832C0E98F4480F80042C0F8184280F8F8
S31508009040204280F84442A2F0DEFF3246164917480D
S31508009050A2F0D9FF324616491648A2F0D4FF284690
S31508009060154B6C6040F8103B2C7228F09DFCC5E946
S315080090703444C5E9364432462846BDE870400F49AF
S31508009080A2F0C1BF701600207CE60B08DC0F022098
S3150800909075BA010885AD010824390B08809C0C08AF
S315080090A00D8E000890150020C71C070860100220C6
S315080090B0C91C07084010022030E00B084D8E000836
S315080090C0002310B586B0CDE90233CDE9043302ABEF
S315080090D0009310230C4601934CF01CFF0368694665
S315080090E0D3F88830984740B101211FF05FFE01216F
S315080090F003460B4A1F207EF094FD019A63689A4244
S3150800910009D152B121680098A4F0ACFAB0FA80F0FF
S31508009110400906B010BD0020FBE70120F9E700BFB3
S315080091205C390B08F0B59FB004463421684618F040
S3150800913047FCBDF80220BDF800309A422ED0002721
S31508009140A8F054F802AD0523002215A9A7F00EFED3
S31508009150082216992846A4F0D6FA28468DF81070E3
S31508009160A4F062FB0126179BCDE90F502046CDE9F6
S315080091700C378DF83860A4F057FB8DF84460CDE9BC
S3150800918012407FF0FAF9064B05A905930CAB069336
S315080091902EF08AFB4FF48060A7F0C6FD1FB0F0BD25
S315080091A0491D07082DE9F04F0446D0E90098D0E993
S315080091B00276364A87B0936A012105930369D2F885
S315080091C02CB0D2F834A0956B01934369304A0293C8
S315080091D083690393C369002004937EF022FD01216D
S315080091E00020059B2B4A7EF01CFD5B4601210020D2
S315080091F0294A7EF016FD534601210020274A7EF0B3
S3150800920010FD2B4601210020254A7EF00AFD2B463B
S3150800921001210020224A7EF004FD23460121002078
S31508009220204A7EF0FEFC4B46012100201E4A7EF0B5
S31508009230F8FC4346012100201C4A7EF0F2FC3B461E
S31508009240012100201A4A7EF0ECFC33460121002059
S31508009250184A7EF0E6FC01210020019B164A7EF0A2
S31508009260E0FC01210020029B144A7EF0DAFC012171
S315080092700020039B124A7EF0D4FC01210020049BA7
S31508009280104A7EF0CEFCA9F0F4FDFEE700ED00E002
S31508009290E5390B08F0390B08043A0B08183A0B089D
S315080092A02C3A0B08403A0B08543A0B08683A0B0854
S315080092B07C3A0B08903A0B08A43A0B08B83A0B0804
S315080092C0CC3A0B08E03A0B08012108B5074A084BC7
S315080092D000207EF0A6FC0648FFF724FFA9F0C9FD8A
S315080092E00449054864F0E8FAFEE700BF997A0B08D6
S315080092F0F43A0B08B5390B08CC390B0800240D468F
S3150800930000B59BB06022214602A80194A4F0D4F9C6
S315080093102B466421094A01A864F0E0FA0121084AAB
S3150800932001AB20467EF07DFC01A8FFF7FBFEA9F005
S31508009330A0FD0449044864F0BFFAFEE7173B0B0892
S31508009340997A0B08B5390B08CC390B08034B03601F
S31508009350034B0B604FF4A07313607047306E012007
S3150800936030690120034B0360034B0B604FF48063A5
S3150800937013607047CC680120CC58012000240D46A4
S3150800938000B59BB06022214602A80194A4F094F986
S315080093902B466421074A01A864F0A0FA0121204659
S315080093A0054A01AB7EF03DFC01A8FFF7BBFEA3F022
S315080093B0F2FE00BF2A3B0B08997A0B0800210446E7
S315080093C000B589B01A2201A80091A4F075F92346C0
S315080093D0074A1E21684664F081FA6946054823F063
S315080093E02FFF6846FFF79EFEA7F0B2F9A3F0D3FE5B
S315080093F03A3B0B08503B0B08012903BF034B0020DF
S315080094001B78A62008BF1370704700BF6EFD0120A9
S31508009410022938B514461D460FD1202200210848D6
S31508009420A4F04AF93CB1202D2A46214628BF20221D
S315080094300348A4F0ECF9002038BDA620FCE700BFDD
S315080094404EFD0120104608B56AB163B102290CD158
S31508009450202B28BF20231A46029B05491A60A4F030
S31508009460D6F9002008BD2F20FCE7A620FAE700BFA2
S315080094704EFD0120012905D102B11278024B0020C8
S315080094801A707047A62070476EFD01202DE9F0433B
S315080094901D46002389B0074608460E461446CDE900
S315080094A0053324F0DDFA18B9D82009B0BDE8F083F1
S315080094B0304605A924F0A0FB0028F6D1204624F062
S315080094C0CFFA0028F0D0204606A924F095FB0028FC
S315080094D0EBD1DDE90586079007A9124824F08CFB35
S315080094E00446D8B9079B18EB030902D10EB1A3F0BD
S315080094F052FE009302213B461F20CDE901860A4A07
S315080095007EF08FFB6B689E420AD832464946286829
S31508009510A4F07DF96B689E42E9D86E602046C4E7E0
S315080095201924FBE721720800A43B0B08014824F024
S31508009530B3BC00BF00720800002307B503480193B7
S3150800954001AB24F0ADFB03B05DF804FB0072080024
S31508009550014824F05DBC00BF0C72080010B506482F
S315080095600C4624F01DFB40F20123984202BF4FF639
S31508009570F1732380002010BD0C720800014824F006
S315080095808BBC00BF0D72080073B5002601AB0C48F2
S315080095900C461546019624F083FB40F201239842B7
S315080095A008D14CB1062D09D920462946054A68F046
S315080095B00BFC304602B070BD0B20FBE71920F9E71B
S315080095C00D720800C23B0B08014824F021BC00BFFD
S315080095D00B72080010B506480C4624F0E1FA40F272
S315080095E00123984202BF48F206032380002010BDDB
S315080095F00B720800014824F04FBC00BF0E72080029
S3150800960073B5002601AB0C480C461546019624F0A6
S3150800961047FB40F20123984208D14CB1062D09D9DF
S3150800962020462946054A68F0CFFB304602B070BD91
S315080096300B20FBE71920F9E70E720800C93B0B0857
S31508009640014824F029BC00BF10720800002307B5A2
S315080096500348019301AB24F023FB03B05DF804FB38
S3150800966010720800014824F017BC00BF11720800E8
S31508009670002307B50348019301AB24F011FB03B09F
S315080096805DF804FB11720800014824F005BC00BF10
S3150800969012720800002307B50348019301AB24F0B2
S315080096A0FFFA03B05DF804FB12720800014824F0C3
S315080096B0AFBB00BF1872080010B506480C4624F068
S315080096C06FFA40F20123984202BF0123238000204B
S315080096D010BD00BF18720800014824F0DDBB00BFAA
S315080096E00F72080073B5002601AB0C480C461546E8
S315080096F0019624F0D5FA40F20123984208D14CB1DC
S315080097000C2D09D920462946054A68F05DFB3046E6
S3150800971002B070BD0B20FBE71920F9E70F720800AD
S31508009720D33B0B08014824F0B7BB00BF04720800FE
S31508009730014824F0B5BA00BF04720800014824F0B5
S31508009740CDBB00BF1F72080007B500200090034874
S3150800975024F0FCFA03B05DF804FB00BF1F72080092
S31508009760014824F099BB00BF1972080073B500269A
S3150800977001AB0C480C461546019624F091FA40F2C6
S315080097800123984208D14CB1012D09D92046294612
S31508009790054A68F019FB304602B070BD0B20FBE79E
S315080097A01920F9E719720800896A0B08014824F09C
S315080097B02FBB00BF0772080013B510480C4624F0EB
S315080097C0EFF940F201229042034604D14FF4706348
S315080097D0238000230FE070B92388B3F5805FF8D3A0
S315080097E04FF4CD732F240121CDE90034044A054BEB
S315080097F07EF017FA2346184602B010BD0772080015
S31508009800003C0B08E03B0B08014824F019BB00BFDD
S315080098100872080010B506480C4624F0EDF940F227
S315080098200123984202BF4FF47A732360002010BDCB
S3150800983008720800014824F02FBB00BF097208000F
S31508009840014824F02DBA00BF09720800014824F027
S3150800985023BB00BF0A720800014824F021BA00BFE2
S315080098600A7208000B4610B5084A0C46084809490A
S31508009870FFF70CFED82807D11EF08EF9036821469B
S31508009880BDE810409B68184710BD00BF2772080046
S31508009890113C0B08267208000B4610B5084A0C4600
S315080098A008480949FFF7F2FDD82807D11EF074F9D0
S315080098B003682146BDE810405B69184710BD00BF24
S315080098C0257208002D3C0B08247208000B4610B5BB
S315080098D0084A0C4608480949FFF7D8FDD82807D191
S315080098E01EF05AF903682146BDE810401B6918475F
S315080098F010BD00BF23720800533C0B0822720800F3
S31508009900022307B501A8D1E9001201934CF024FA05
S3150800991018B90199024824F093FA03B05DF804FBDC
S31508009920207208001FB5022003900698009003A82D
S315080099304CF02AFA18B90399024824F081FA05B0BE
S315080099405DF804FB20720800002370B5164886B03F
S315080099500D461646049324F083F8E8B1124804A984
S3150800996024F04AF9B0B9049B3246002B08BF0223FB
S31508009970294605A805934CF06FFA044602907368C9
S315080099801F2001936B6802210093084A049B7EF00E
S3150800999048F9204606B070BD1EF0FEF80368324648
S315080099A029469B699847E8E7207208006C3C0B0833
S315080099B0014824F045BA00BF21720800014824F086
S315080099C01BB900BF21720800014824F065BA00BF20
S315080099D029720800014824F063B900BF29720800FB
S315080099E0014824F07BBA00BF0572080007B50020BD
S315080099F00090034824F0AAF903B05DF804FB00BF01
S31508009A0005720800014824F0EBB900BF2872080067
S31508009A10014824F099B800BF2872080008B54A68BA
S31508009A20102A01D02F2008BD0968024824F056FAEA
S31508009A30F9E700BF177208000023F0B54A688DB031
S31508009A400F2A0C46029302D819200DB0F0BD0093D8
S31508009A50102202AB0968194824F078F940F201236C
S31508009A60984223D103AA1646154B03F1200715463B
S31508009A7018685968083303C5BB422A46F7D11B78CC
S31508009A8020212B703046102322687DF065FF1028B0
S31508009A900BD0002162682068A3F00EFE1F2001216A
S31508009AA0084A7EF0BEF8AC20CFE7002063680F2B8B
S31508009AB001D8A3F070FB10236360C6E7177208008D
S31508009AC0E33C0B08B73C0B080020094B10B518609F
S31508009AD032B9084C2146BDE81040074824F0B0B911
S31508009AE0A1F5005105488C1880F04FFAF2E700BF3F
S31508009AF0946E012000E03108217208008881012057
S31508009B0000232DE9F04F85B080460F462C4803A95F
S31508009B101546039324F070F8002838D1294E039986
S31508009B2033681BB9284880F014FA80BBD5E90014BD
S31508009B303368039A02EB030B14F003031BD10A469E
S31508009B4023465946204880F00AFA00BB4046316849
S31508009B5024F076F9D8B93846696824F071F9B0B9AD
S31508009B6032686B680020134413F03F021CBF403371
S31508009B709B1A33600BE004F1040AAAEB030A504669
S31508009B80019122F02DFD0199814618B9AC2005B046
S31508009B90BDE8F08F2246A3F03AFEAAEB0402FF21A5
S31508009BA009EB0400A3F088FD53464A465946064881
S31508009BB080F0D5F90446484622F036FD2046C4E72B
S31508009BC021720800946E01208881012008B50A4692
S31508009BD002480349FFF794FF08BD00BF2272080038
S31508009BE02372080008B50A4602480349FFF788FFAA
S31508009BF008BD00BF247208002572080008B50A4689
S31508009C0002480349FFF77CFF08BD00BF267208001B
S31508009C102772080010B530200C4622F0E1FC20B16E
S31508009C20024B848003600023836010BDF43D0B085B
S31508009C3010B52C2022F0D4FC044628B12C22002191
S31508009C40A3F03AFD014B2360204610BD2C3E0B08BD
S31508009C5008B5082022F0C4FC18B100234360014B64
S31508009C60036008BD483E0B08F8B543680446072B51
S31508009C700D461FD8013B062B96BF0F4A0F4F52F8C9
S31508009C8023703846A3F0D0FD232813D804F108061C
S31508009C90242239463046A3F036FD0023304684F8A0
S31508009CA02B30A3F0C1FDC5E90060012063680133CC
S31508009CB06360F8BD0020FCE7B03D0B08043D0B08C7
S31508009CC0042370B5144645688AB0ADF802302B688F
S31508009CD00A4601A805499E6868F064F9224628469E
S31508009CE00DF1020301A9B0470AB070BD0A3D0B0881
S31508009CF030B54468134622688BB0156901A80A4630
S31508009D00034968F04FF9204601A9A8470BB030BDB2
S31508009D10173D0B0830B58DB04468019223680A4692
S31508009D2003A80649DD6868F03DF9042320460DEBD3
S31508009D30030203A9A8470DB030BD00BF0A3D0B08B2
S31508009D40F0B5A3B0064617A81F460C4615467CF084
S31508009D50F9FC2A2217A80CA97CF007FD0DF10B03C4
S31508009D60019315234FF48072009317A800237CF003
S31508009D702BFF50BB97E80300154B8DE80300D3E98A
S31508009D80002317A87CF0F8FFF8B9D7E90201114BB0
S31508009D908DE80300D3E9002317A87CF0EDFFA0B9EE
S31508009DA09DF90B1017A87CF044FF70B97668224617
S31508009DB033680949DF6803A82B4668F0F3F830468C
S31508009DC0BDF874300CAA03A9B84723B0F0BD00BF8C
S31508009DD0983E0B08903E0B08173D0B0813B5044632
S31508009DE008460A4B1146C4E900300023C4E9033388
S31508009DF00193036822815B6A01AA984710B9019BFF
S31508009E00C4E90303204602B010BD00BF103E0B088C
S31508009E102DE9F34183680446032B0D4603D9002038
S31508009E2002B0BDE8F0818288022100921F20184AFC
S31508009E307DF0F7FEA368032BF1D8164A52F8236083
S31508009E40154A304652F82380A3F0EEFC1028E6D8CF
S31508009E504046A3F0E9FC1028E1D804F10C07314686
S31508009E60384604F11D0668F0C3F84146304668F0E6
S31508009E70BFF83846A3F0D8FCC5E900703046A3F011
S31508009E80D3FCC5E90260A36801200133A360C7E7D4
S31508009E90283D0B08DC3D0B08CC3D0B082DE9F041AD
S31508009EA0D0E90332934204460D469EB003D3002000
S31508009EB01EB0BDE8F0812A2642683B495768ADF8CE
S31508009EC002603A68D2F80880028910A868F06AF831
S31508009ED038460DF1020305AA10A9C0470028E6D1A5
S31508009EE010A87BF075FF324605A910A87BF0B3FFD2
S31508009EF04FF480720023152110A87CF0C4FA0028BC
S31508009F00D5D10DF1010110A87CF0B3F90028CED106
S31508009F10264BCDE90100D3E90023CDE9030010A8BB
S31508009F207CF0A4FA0028C2D101AE314610A87CF014
S31508009F3019FB0028BBD11E4B10A8D3E900237CF0DF
S31508009F4095FA0028B3D10DF10C08414610A87CF00B
S31508009F5009FB0028ABD110A87CF07DFA0028A6D111
S31508009F609DF9011010A87CF021FA00289FD196E8E7
S31508009F70060004F1140704F12506384668F040F88F
S31508009F8098E80600304668F03BF83846A3F04CFCE3
S31508009F90C5E900703046A3F047FCC5E90260E368EE
S31508009FA001200133E36083E7173D0B08983E0B0851
S31508009FB0903E0B0870B5036805460C4616460BB16D
S31508009FC0032070BD02210D20074A7DF02AFE0CB938
S31508009FD02F20F6E723682046DB6898470028F0D14B
S31508009FE0C5E90046EDE700BFA03E0B082DE9F04F96
S31508009FF0074600688BB004680D46646C90461E469A
S3150800A000A0472D2804460ED048B19F4A9F4B0221EF
S3150800A010A52808BF13460D209D4A7DF002FE20465E
S3150800A0200BB0BDE8F08F6B78202B01D10024F6E742
S3150800A030984B3868029358B103682A461B6C02A9E4
S3150800A0409847044630B1029803689B689847E6E744
S3150800A0500324F8E74FF0000A4FF0000B8E4B0393EA
S3150800A060029803A90368DB68984730B102210D20DE
S3150800A0708A4A7DF0D6FDA52410E08DF806000398DF
S3150800A0800DF106010368DB689847044630B99DF868
S3150800A0900630402B06D0802B04D0032403A868F092
S3150800A0A001F8D0E76A789A42DAD1012303988DF845
S3150800A0B0073003680DF107015B69984704460028D5
S3150800A0C0ECD19DF80730082B18D8002BC8D0013BD7
S3150800A0D0072BC5D801A252F823F000BF15A1000826
S3150800A0E027A1000861A0000833A1000861A00008A4
S3150800A0F061A0000861A0000851A10008102BAFD18B
S3150800A100102E1AD0082EABD84FF48B73F340D8070D
S3150800A110A6D512E006F1FF3CDCF1000343EB0C0385
S3150800A120002B9DD009E0731E012B8CBF0023012351
S3150800A130F6E7042E01D0012E92D10023039804934A
S3150800A140036804A95B6A9847814648B14C46A5E767
S3150800A150082E85D86FF489733341DC07EDD57FE780
S3150800A160049B1BBB002303980593036805A99B6BF7
S3150800A170984781460028E9D1059B002B7FD100240A
S3150800A1808CE74FF0FF31C21C994274EB020243D3AD
S3150800A1909DF80620402A80D14FEA134C05F10C01A0
S3150800A1A005F118048C4229D109F10109049B4B4594
S3150800A1B07FF656AFCDE906AB03984946036806AA6B
S3150800A1C09B6A9847044600287FF468AFDDE90630A5
S3150800A1D06FF0010C5A1E40F1FF3194456FF01002E2
S3150800A1E08A41CED39DF80620402A7FF456AFD5E99A
S3150800A1F00212904208BF8B42D6D1B3E751F8042F1A
S3150800A200002ACFD0BCEB124FCCD198B20028C9D0C7
S3150800A21092B29042C6D8A5E713F5803F70F1FF3297
S3150800A220FFF43BAF9DF80620802ADEE7002303985B
S3150800A230069303684946DB6B06AA98470446002836
S3150800A2407FF42CAF069BD90704D5D8F800200799C8
S3150800A250914212D19A0705D5BDF82010B8F8042006
S3150800A26091420AD15B078AD57868B8F80420036852
S3150800A27009999B689847002881D109F10109059B2E
S3150800A2804B45D3D8ECE600BFE83E0B08C2420D08A2
S3150800A290BC3E0B08681002206C100220D93E0B0841
S3150800A2A00023F0B58BB0CDE90433054600688DF878
S3150800A2B00D308DF80E308DF80F3003680DF10D0155
S3150800A2C0DB6898470446002840F0C78028680DF1E7
S3150800A2D00E0103681B6998470446002840F0BD80B4
S3150800A2E028680DF10F0103685B6998470446002842
S3150800A2F040F0B380286804A903685B6A9847044657
S3150800A300002840F0AA80286805A903689B6B98472F
S3150800A3100446002840F0A1809DF80E30002B00F07E
S3150800A3209E809DF80D30402B07D0802B40F09E80F4
S3150800A3309DF80F30102B00F09B802646049BB342F5
S3150800A34007D800264B4F059BA3423AD801200BB0ED
S3150800A350F0BD28683146036806AA9B6A9847002814
S3150800A36079D19DF80D30402B16D1DDE906326FF014
S3150800A370010C591E42F1FF378C456FF01001B941A7
S3150800A38008D24FF0FF310332994270EB02020CD328
S3150800A3909BB253B10136D1E7802B06D1069B079AAB
S3150800A3A013F5803F72F1FF32F1E7334B044600287C
S3150800A3B056D001210D20314A00947DF032FC002050
S3150800A3C0C5E72868069603682146DB6B06AA984700
S3150800A3D0002840D1069B03F0020103F00402DB07C4
S3150800A3E010D411B1F2B1264BE0E7002AFBD0099B45
S3150800A3F003EA070212F5003FF5D89BB2B3F5404FC2
S3150800A400F1D215E009B1002AEDD1079B13F5302FDB
S3150800A4104FEA134CE7D2BCF1000F0BD11B0410D541
S3150800A4206046E0E74FF6FF73BDF820209A42DAD07F
S3150800A430013488E740F2FE3C03F580639BB263452E
S3150800A440D1D829B14FF6FF73BDF820109942CAD06A
S3150800A450002ACCD1ECE70B4BA8E70A4BA9E70A4B35
S3150800A46001210D20094A7DF0DCFBA8E7084BF7E738
S3150800A470084BF5E70000FFFF003F0B08583F0B08A5
S3150800A480103F0B08EF3E0B08433F0B086E3F0B08C7
S3150800A490313F0B081F3F0B082DE9F04305460068BE
S3150800A4A087B088461F468DF80F2020B9032420461A
S3150800A4B007B0BDE8F083DFF86490AB68CDF8149078
S3150800A4C0EBB900262868394603680DF10F02DB6BE5
S3150800A4D09847044678B91EB133684B4508BF00262D
S3150800A4E002234146CDE9006328463B469DF80F20E6
S3150800A4F067F0F9FD002405A867F0D4FDD7E79DF8B5
S3150800A5000F3039468DF81330036805AA5C6B0DF1D8
S3150800A5101303A0470028D4D105AED3E76C10022058
S3150800A520034B1868034B002808BF1846704700BF3E
S3150800A530986E01209C6E012010B5044602210D205C
S3150800A540024A7DF06EFB024B1C6010BD803F0B0873
S3150800A550986E012010B5094C094922460948A1F010
S3150800A56052FD224608490948A1F04DFD2246BDE89C
S3150800A570104007490748A1F046BD00BFDC0F02207E
S3150800A580732007089C6E0120852007086C1002209E
S3150800A59087200708681002200023F7B5CDE90033A5
S3150800A5A04AB96E4601AB15240E4A013C06D114235E
S3150800A5B0036003B0F0BD6B4601AEF4E71578002DD5
S3150800A5C0F5D055788D4206D107683568AF4207D071
S3150800A5D0019D01350195009D403201350095E4E75E
S3150800A5E01B68E5E70019002007B5019021B1012293
S3150800A5F0097801A8FFF7D0FF019813280AD8064B57
S3150800A600820103EB80109B5C002B08BF002003B07F
S3150800A6105DF804FB0020FAE7001900200023152046
S3150800A62010B51360074B013801D1002010BD1C7806
S3150800A630002CFAD05C7840338C4202BF146801348F
S3150800A6401460F0E70019002000231A4610B50648E2
S3150800A650B3F5A06F0A6001D1002010BD4033C45C79
S3150800A660002CF9D00132F3E7C01800200868114B16
S3150800A67070B598420E46154603D303F10C02904274
S3150800A68014D31B79A3B90B4C03689B68984701231D
S3150800A690002D3460237108BF00234FF0000063715A
S3150800A6A018BF2B78A06018BFA37170BD0446EBE7EE
S3150800A6B01920FAE7AC6E012002210D20014A7DF02F
S3150800A6C0B0BA00BF04400B0838B502210D20074A6E
S3150800A6D07DF0A7FA0024064D60194034B4F5A86F3A
S3150800A6E001D1002038BD67F0A2FDF5E72C400B0824
S3150800A6F00019002038B50B4B0C46984202D30C3390
S3150800A700984201D3A2F047FD85680FCD0FC40FCD3F
S3150800A7100FC40FCD0FC495E80F0084E80F00002082
S3150800A72038BD00BF741002202DE9F041144C1F46B5
S3150800A7300E461523A046013B01D119201EE02178BB
S3150800A74071B14034F7E763783B70B6B1A4EB0804FF
S3150800A750A41134602A4630463978FFF71DFF0CE00D
S3150800A76021461068FFF7C6FF054630B9002FEAD123
S3150800A7701EB1A4EB0804A41134602846BDE8F08194
S3150800A78000190020064B984203D303F10C029042AD
S3150800A79004D39B680248002B18BF0020704700BFEF
S3150800A7A07410022010B50868FFF7ECFF80B18268C4
S3150800A7B0084B0AB19A4206D21B784BB9054A67F08C
S3150800A7C07DFD002010BD03F14004A242F4D2F6E755
S3150800A7D01920F7E7C018002038B5114A83684BB925
S3150800A7E0104B83608468944201D0237833B9826021
S3150800A7F00A2038BD9342F5D24033F2E743791BB1BC
S3150800A800657883799D42E9D10868FFF7BBFF20B1D7
S3150800A810224667F053FD0020EBE71920E9E700BF61
S3150800A820001E002000190020F0B50E4F8468064669
S3150800A830BC4205D307F140039C4201D20020F0BD7B
S3150800A8403B7863B9074D0FCC0FC50FCC0FC50FCC9E
S3150800A8500FC594E80F0085E80F00B760EEE71920EA
S3150800A860EDE700BFC01800202DE9F0410E4611465D
S3150800A8703046FFF7B9FE0446002842D0224FBB688F
S3150800A880984202D13846FFF7CFFFDFF88C8044455F
S3150800A89016D204F1400CC4450FD294F8403063B187
S3150800A8A065460FCD0FC40FCD0FC40FCD0FC495E865
S3150800A8B00F0084E80F006446E9E7204667F0B7FC16
S3150800A8C0124CBB6804EB86169E4212D003D243454F
S3150800A8D001D2403BBB600E4A93689E4206D8434568
S3150800A8E004D2A3420CBF0023403B93600020BDE87E
S3150800A8F0F0817D68286803689B689847054B2B603C
S3150800A900E9E70A20F3E700BF7410022000190020C7
S3150800A910AC6E01206C100220001E00208268054BD8
S3150800A92000219A4203D340339A4238BF117081609E
S3150800A930704700BFC018002010B5094CD4E8AF3FD7
S3150800A940DB070BD4204687F0F1F938B1054A0649EA
S3150800A9500648A1F058FB204687F0EDF9034810BDDC
S3150800A960A86E0120DC0F02200523070870100220BC
S3150800A97010B5084C084922460020A1F044FB0020E7
S3150800A980064B074A18711A6006492246BDE8104068
S3150800A990A1F039BBDC0F02200B230708AC6E01209F
S3150800A9A0B0400B08B123070870B5104ED6E8AF4F74
S3150800A9B014F0010418D1304687F0B8F9A0B10C4D4F
S3150800A9C00C4A2B4607CA43F8044B83E807004FF6A0
S3150800A9D0FF722A824FF0FF321846C5E9052467F050
S3150800A9E03CFE304687F0A7F9014870BDB86E0120D5
S3150800A9F0BC6E012044410B0838B5054604300C46A8
S3150800AA0067F02BFE2A6813461BB9E26001202C600A
S3150800AA100DE09868A16888420ED1197909B12179A3
S3150800AA2031B923200121054A7DF0FBF8002038BD05
S3150800AA30D888E1888842F4D0DB68E5E710410B083E
S3150800AA40F0B5044685B0216829B90846C4E902115B
S3150800AA50A180A17134E04FF6FF730A899A4222D089
S3150800AA600B6801331FD04B685A1C53425341A371DC
S3150800AA704FF6FF73228A9A420AD10B89934202D073
S3150800AA800A68013211D1204667F018FEFF232376A3
S3150800AA90208A638A834215D82368DB6823604FF6C9
S3150800AAA0FF732382CFE70123E1E74A680132EAD040
S3150800AAB0A3800B68A3604B68E36000232361012031
S3150800AAC005B0F0BD16F006FE48B9238A4FF6FF72A8
S3150800AAD001332382FF23A2822376A376D8E7208A2E
S3150800AAE017F0AAF8237E0546FF2B08D102462168EF
S3150800AAF0204667F0F6FD4FF6FF73A382A3764FF65E
S3150800AB00FF7732E0A38A019EBB4208D1A37EFF2BC2
S3150800AB1005D133462A462046216867F0F6FDA38A02
S3150800AB20E28A9A420FD93246294602A874F0AAFB4D
S3150800AB309DF8083033B3039BA580C4E90263A38A52
S3150800AB400133A382BBE7A37EE27E9A4208D90E4A66
S3150800AB50A58052F823200133C4E90262A376AEE742
S3150800AB60237EA78201332376A776227E637E9342CD
S3150800AB70ABD901232946684674F007FB9DF80030D7
S3150800AB80002BBFD1A2F007FB50410B082DE9FF416E
S3150800AB900A9F884616461D467CF025FF044600286F
S3150800ABA03FD0D6E900010026231DD8F80020C4E9C5
S3150800ABB00133C4E906011D4B267323602661226210
S3150800ABC004F1280C95E80F008CE80F002B7C04F1A3
S3150800ABD0480084F838306B8A63876B69E363D5E984
S3150800ABE00623C4E91023124B04F1580519680B68AB
S3150800ABF09B68984700220023C4E9142301AB97E811
S3150800AC00070083E80700012385E80700A4F87430E5
S3150800AC10084B84F8646084F8686084F86C60A667FA
S3150800AC202360204604B0BDE8F08100BFAC410B08A4
S3150800AC30E8110220F4410B08094A08B502600269C6
S3150800AC400AB1A2F0A8FA074A011D026082688A4280
S3150800AC50F7D141680029F4D04A604368136008BDFB
S3150800AC60AC410B0864410B0810B50446024B03605F
S3150800AC70FFF7E2FF204610BDF4410B08F7B50C4676
S3150800AC80114B0546196868460B689B689847D4E9CE
S3150800AC901421009B20469F1A019B63EB010667F06F
S3150800ACA0F2FE038920469F4276F1000309D267F037
S3150800ACB0EAFE0430036828462B6000236B6003B065
S3150800ACC0F0BD67F0E0FEF5E7E81102202DE9F04354
S3150800ACD007460E46154698466FF001096FF01004B0
S3150800ACE08BB079F002FE421E41F1FF33914574EBB9
S3150800ACF00303F6D300231836CDE904010293304640
S3150800AD002B46CDF8008004AA02A9FFF73FFF0446A8
S3150800AD1050BB4FF0FF324FF0FF33CDE9062306ABA9
S3150800AD2003900893304603AB1C4A08A909937CF0A4
S3150800AD30C2FE039C2CB900233B7038460BB0BDE815
S3150800AD40F083236820461B689847214630467CF0E6
S3150800AD5090FE2B463046CDF8008004AA02A9FFF7DC
S3150800AD6015FF04460028E6D095E80F0004F12806EA
S3150800AD7086E80F002B7C204684F838306B8A638778
S3150800AD806B69E363D5E90623C4E9102301233B7005
S3150800AD9023687C60DB689847CFE700BFED29070882
S3150800ADA0084B10B50360183343600446083067F053
S3150800ADB0DEFE014620B9606900F5CF607DF0F4FA41
S3150800ADC0204610BDA0430B08A0F10400E8E700BF29
S3150800ADD02DE9F04F06460C468FB01D469DF86430A7
S3150800ADE090460793D1E90023CDE9003227200B7A54
S3150800ADF02D4A0321189FDDF868A09DF86C907CF019
S3150800AE0010FF00222146304667F0FEFE834670BBDF
S3150800AE1003212720254A7CF004FFD6F834C0DCF845
S3150800AE2000E0049694E80F008DE80F006046DEF80F
S3150800AE300030326B06F1080198478346B8B925B148
S3150800AE400B2221462B69E86898476FB194E80F00F2
S3150800AE5008AD85E80F000B230C93002329468DF8CF
S3150800AE603430F8683B6998470FB0BDE8F08F58460C
S3150800AE7007996AF08BFABAF1000F03D05146584683
S3150800AE8003F018FB2DB14B462A46414658466AF050
S3150800AE9085FB002FE8D04B463A46414658460FB048
S3150800AEA0BDE8F04F6AF082BB34420B0865420B08D6
S3150800AEB082B070B586B00AA981E80C000122054661
S3150800AEC067F0A2FE0446E8B903212720134A7CF05E
S3150800AED0A8FE6C6B0AAB266804950FCB8DE80F00AD
S3150800AEE0204633682A6B05F108019847044688B955
S3150800AEF0032127200A4A7CF094FE06B0BDE870407C
S3150800AF0002B070470A9B0321009327200B9B054A32
S3150800AF107CF087FE204603F057FCEEE7B0420B08AC
S3150800AF20F6420B083D430B0810B50446044B40F89F
S3150800AF30083B66F0D4FE201D66F0D1FE204610BD03
S3150800AF4064980C0810B50468A468A047044648B17C
S3150800AF50034601210D20044A7CF063FE0B2C01D028
S3150800AF60A2F019F910BD00BFC4430B0873B50668F3
S3150800AF700446F6690D46B047034670B101210D2017
S3150800AF80074A7CF04EFE23682946DE6801232046E0
S3150800AF90ADF8043001AA0023B04702B070BD00BF67
S3150800AFA0E6430B0838B504462C4B0025C0E90031AA
S3150800AFB008306CF0B0F904F114006CF0ACF904F147
S3150800AFC020006CF0A8F904F12C006CF0A4F904F147
S3150800AFD038006CF0A0F904F144006CF09CF904F117
S3150800AFE050006CF098F904F15C006CF094F9FF23BA
S3150800AFF084F8703004F17803C4E91E3384F8685085
S3150800B000A4F86C50656704F180007BF09BFB144B39
S3150800B010C4F8B450C4E92B3584F8B85004F1BC0020
S3150800B0207BF090FB0123C4F8E8300E4BC4E93D558C
S3150800B030C4E93B35C4E93F5504F1EC03C4F80431CF
S3150800B04084F80A51C4F80C5184F81051A4F8125126
S3150800B050C4F81451A4F81851204638BD1C490B08E9
S3150800B06064980C08F8480B0838B504460E4B04F1EA
S3150800B0707805036068F006F80C4B04F1B400C4F8D0
S3150800B080AC3066F02CFE04F1B00066F028FEE36FE3
S3150800B0909D4201D0A2F07FF8284667F053FF284664
S3150800B0A067F02AFF204638BD1C490B0864980C082F
S3150800B0B02DE9F041B2B0054622A80F466DF09CF97D
S3150800B0C0002314A8CDE9053307937AF081FE3846A4
S3150800B0D022A96CF094F920B18024204632B0BDE84C
S3150800B0E0F08105A922A86CF088FA06460028F3D153
S3150800B0F0686805A903681B6998470446D0B1DDE965
S3150800B1000623BDF814100D20039191B2120C01927A
S3150800B1109AB2029100921B0C584A03217CF081FDD9
S3150800B12033462246284605A967F01CFF041E18BFA9
S3150800B1300124D2E72B682946DB6A0CA89847BDF894
S3150800B14014304FF00108ADF8243003230799069808
S3150800B150ADF826300A9108908DF82C8018F0B0FAD0
S3150800B1600646FFF7DDF9334608AA0CA966F0B0FFD4
S3150800B17058B1A52804D0A82805D023464246D1E7C9
S3150800B1807E220023CEE79D22FBE7DDE90601FCF7D8
S3150800B190D5FD00285DD1DDE9060163F055FE0028DE
S3150800B1A060D1384614A96CF03FF9212818D1DDE999
S3150800B1B0063291B2120C02929AB21B0C0D20039120
S3150800B1C0019203212E4A0093BDF814307CF029FD24
S3150800B1D014A802222B497AF03EFE14A87BF01BF92C
S3150800B1E0002848D1DDE9063291B2120C02929AB2D1
S3150800B1F01B0C0D20039101920321234A0093BDF8ED
S3150800B20014307CF00EFD16F0ABF9064603682946A5
S3150800B210DF682B680CA8DB6A984730460CAA05A994
S3150800B220B847002827D1686805AA03682946DE6852
S3150800B23014ABB04716F094F90646036829461F6909
S3150800B2402B680CA8DB6A984730460CAA05A9B847AC
S3150800B25043E72B6828465B6A984700289BD1234614
S3150800B260C6225FE72B6828469B699847034600284D
S3150800B27097D17E2256E70023852253E71E440B0802
S3150800B2805D440B0858490B08B3440B082DE9F04FE9
S3150800B290C1B0064630A80F466DF0AEF814A87AF08D
S3150800B2A097FD8A4B08931BF03BFB30A904463846AA
S3150800B2B06CF0A5F818B1802041B0BDE8F08F07AA58
S3150800B2C006A930A86CF070F90028F4D1D6F80C114C
S3150800B2D009B9A1F060FF0B6822A85B6998479DF839
S3150800B2E08830002BF5D0336830469B69BDF88A80D4
S3150800B2F09847DDE9063291B2120C02929AB21B0CFB
S3150800B300039101920321724A0093054643460D2094
S3150800B3107CF087FC384614A96CF086F8212821D1E0
S3150800B320DDE9063291B2120C02929AB21B0C0D207C
S3150800B330039101920321674A009343467CF071FC0E
S3150800B34014A8022264497AF086FD14A87BF063F8F3
S3150800B3500028B0D1DDE90601FCF7F0FC024628B169
S3150800B3600020A9E70028F5D00120A5E7236829468B
S3150800B370DB6B22902046984707460028F4D04FF00A
S3150800B380030ADFF860913B683846DB6808A99847E6
S3150800B39020B93B6838461B699847E1E7BDF8203075
S3150800B3A04345F0D1DDE9063291B2120C02929AB207
S3150800B3B01B0C0D2003910192032100934A46BDF808
S3150800B3C022307CF02EFCBDF822307068ADF82430AF
S3150800B3D0069B09A90A93079B0B9303681B69984761
S3150800B3E088B1DDE90623BDF822100D20039191B23C
S3150800B3F0120C01929AB2029100920321374A1B0C51
S3150800B4007CF00FFCBFE7012433683146DB6A22A8CB
S3150800B4109847BDF824300B990A98ADF834300E9148
S3150800B4200C90ADF836A08DF83C4018F049F9054661
S3150800B430FFF776F82B460CAA22A966F049FE0028E3
S3150800B440A1D116F08DF8054603683146D3F80CB03D
S3150800B450336822A8DB6A9847284622AA09A9D8474A
S3150800B46008BB22AC14AD0FCD0FC40FCD0FC40FCD42
S3150800B4700FC495E8030084E80300706809AA036806
S3150800B4803146DC6822ABA04716F06AF80446036822
S3150800B49031461D6933680CA8DB6A984720460CAA12
S3150800B4A009A9A8476FE7DDE9063291B2120C0292A4
S3150800B4B09AB21B0C049003910192009321460D2029
S3150800B4C0BDF82230064A7CF0ACFB5CE70000FFFFC3
S3150800B4D0FC440B0848450B0858490B081E440B0842
S3150800B4E0EC450B089B450B0808B590F8103133B1AD
S3150800B4F001210D20034A7CF094FBA1F04CFEC0F814
S3150800B5000C1108BD50460B087FB51E4690F8103141
